:020000040800F2
:1000000000500020D5400008411F0008431F000891
:10001000451F0008471F0008491F00080000000096
:100020000000000000000000000000004B1F00085E
:100030004D1F0008000000004F1F0008511F00085E
:100040001D4100081D4100081D4100081D41000818
:100050001D4100081D4100081D4100081D41000808
:100060001D4100081D4100081D4100081D410008F8
:100070001D4100081D4100081D4100081D410008E8
:100080001D4100081D4100081D4100081D410008D8
:100090001D4100081D4100081D4100081D410008C8
:1000A0001D4100081D4100081D4100081D410008B8
:1000B0001D4100081D4100081D4100081D410008A8
:1000C0001D4100081D4100081D4100081D41000898
:1000D0001D4100081D4100081D4100081D41000888
:1000E0001D4100081D4100081D41000800000000DE
:1000F0000000000000000000000000000000000000
:0C01000000000000000000005FF808F1A3
:1001100010B5054C237833B9044B13B10448AFF341
:1001200000800123237010BD80000020000000002B
:100130002C5B000808B5034B1BB103490348AFF320
:10014000008008BD00000000840000202C5B000837
:1001500081F0004102E000BF83F0004330B54FEA78
:1001600041044FEA430594EA050F08BF90EA020FE5
:100170001FBF54EA000C55EA020C7FEA645C7FEA78
:10018000655C00F0E2804FEA5454D4EB5555B8BF9B
:100190006D420CDD2C4480EA020281EA030382EA0C
:1001A000000083EA010180EA020281EA0303362D9E
:1001B00088BF30BD11F0004F4FEA01314FF4801C71
:1001C0004CEA113102D0404261EB410113F0004F83
:1001D0004FEA03334CEA133302D0524263EB43033A
:1001E00094EA050F00F0A780A4F10104D5F1200ED8
:1001F0000DDB02FA0EFC22FA05F2801841F1000133
:1002000003FA0EF2801843FA05F359410EE0A5F106
:1002100020050EF1200E012A03FA0EFC28BF4CF037
:10022000020C43FA05F3C01851EBE37101F00045ED
:1002300007D54FF0000EDCF1000C7EEB00006EEBFA
:100240000101B1F5801F1BD3B1F5001F0CD3490884
:100250005FEA30004FEA3C0C04F101044FEA4452DB
:1002600012F5800F80F09A80BCF1004F08BF5FEA62
:10027000500C50F1000041EB045141EA050130BD42
:100280005FEA4C0C404141EB010111F4801FA4F1E5
:100290000104E9D191F0000F04BF01460020B1FA3A
:1002A00081F308BF2033A3F10B03B3F120020CDA72
:1002B0000C3208DD02F1140CC2F10C0201FA0CF050
:1002C00021FA02F10CE002F11402D8BFC2F1200CB5
:1002D00001FA02F120FA0CFCDCBF41EA0C0190406B
:1002E000E41AA2BF01EB0451294330BD6FEA0404B4
:1002F0001F3C1CDA0C340EDC04F11404C4F120029F
:1003000020FA04F001FA02F340EA030021FA04F3B0
:1003100045EA030130BDC4F10C04C4F1200220FA07
:1003200002F001FA04F340EA0300294630BD21FA45
:1003300004F0294630BD94F0000F83F4801306BF0B
:1003400081F480110134013D4EE77FEA645C18BFFF
:100350007FEA655C29D094EA050F08BF90EA020F96
:1003600005D054EA000C04BF1946104630BD91EA8E
:10037000030F1EBF0021002030BD5FEA545C05D191
:100380004000494128BF41F0004130BD14F58004D0
:100390003CBF01F5801130BD01F0004545F0FE4144
:1003A00041F470014FF0000030BD7FEA645C1ABF79
:1003B000194610467FEA655C1CBF0B46024650EAB0
:1003C000013406BF52EA033591EA030F41F40021DC
:1003D00030BD00BF90F0000F04BF0021704730B562
:1003E0004FF4806404F132044FF000054FF0000137
:1003F00050E700BF90F0000F04BF0021704730B5F8
:100400004FF4806404F1320410F0004548BF4042CC
:100410004FF000013EE700BF42004FEAE2014FEA21
:1004200031014FEA02701FBF12F07F4393F07F4FFC
:1004300081F06051704792F0000F14BF93F07F4F2E
:10044000704730B54FF4607401F0004521F0004171
:1004500020E700BF50EA010208BF704730B54FF0F7
:1004600000050AE050EA010208BF704730B511F0FC
:10047000004502D5404261EB41014FF4806404F134
:1004800032045FEA915C3FF4DCAE4FF003025FEAB6
:10049000DC0C18BF03325FEADC0C18BF033202EB3E
:1004A000DC02C2F1200300FA03FC20FA02F001FA98
:1004B00003FE40EA0E0021FA02F11444C1E600BF37
:1004C00070B54FF0FF0C4CF4E06C1CEA11541DBFEA
:1004D0001CEA135594EA0C0F95EA0C0F00F0DEF8B5
:1004E0002C4481EA030621EA4C5123EA4C5350EA9A
:1004F000013518BF52EA033541F4801143F48013EB
:1005000038D0A0FB02CE4FF00005E1FB02E506F07B
:100510000042E0FB03E54FF00006E1FB03569CF0D0
:10052000000F18BF4EF0010EA4F1FF04B6F5007FD6
:1005300064F5407404D25FEA4E0E6D4146EB060648
:1005400042EAC62141EA55514FEAC52040EA5E50D1
:100550004FEACE2EB4F1FD0C88BFBCF5E06F1ED87B
:10056000BEF1004F08BF5FEA500E50F1000041EBB2
:10057000045170BD06F0004646EA010140EA02005F
:1005800081EA0301B4EB5C04C2BFD4EB0C0541EA81
:10059000045170BD41F480114FF0000E013C00F396
:1005A000AB8014F1360FDEBF002001F0004170BDBA
:1005B000C4F10004203C35DA0C341BDC04F11404D3
:1005C000C4F1200500FA05F320FA04F001FA05F25F
:1005D00040EA020001F0004221F0004110EBD3702C
:1005E00021FA04F642EB06015EEA430E08BF20EA58
:1005F000D37070BDC4F10C04C4F1200500FA04F3FB
:1006000020FA05F001FA04F240EA020001F000418C
:1006100010EBD37041F100015EEA430E08BF20EAFF
:10062000D37070BDC4F1200500FA05F24EEA020E47
:1006300020FA04F301FA05F243EA020321FA04F076
:1006400001F0004121FA04F220EA020000EBD3702D
:100650005EEA430E08BF20EAD37070BD94F0000F2D
:100660000FD101F00046400041EB010111F4801F61
:1006700008BF013CF7D041EA060195F0000F18BF12
:10068000704703F00046520043EB030313F4801F4E
:1006900008BF013DF7D043EA0603704794EA0C0F08
:1006A0000CEA135518BF95EA0C0F0CD050EA41061E
:1006B00018BF52EA4306D1D181EA030101F000419B
:1006C0004FF0000070BD50EA410606BF10461946C3
:1006D00052EA430619D094EA0C0F02D150EA0136CF
:1006E00013D195EA0C0F05D152EA03361CBF104610
:1006F00019460AD181EA030101F0004141F0FE41AF
:1007000041F470014FF0000070BD41F0FE4141F432
:10071000780170BD70B54FF0FF0C4CF4E06C1CEA32
:1007200011541DBF1CEA135594EA0C0F95EA0C0FE7
:1007300000F0A7F8A4EB050481EA030E52EA0335A2
:100740004FEA013100F088804FEA03334FF08055C3
:1007500045EA131343EA12634FEA022245EA1115F0
:1007600045EA10654FEA00260EF000419D4208BFA1
:10077000964244F1FD0404F5407402D25B084FEA4E
:100780003202B61A65EB03055B084FEA32024FF4FA
:1007900080104FF4002CB6EB020E75EB030E22BF57
:1007A000B61A754640EA0C005B084FEA3202B6EB17
:1007B000020E75EB030E22BFB61A754640EA5C00C6
:1007C0005B084FEA3202B6EB020E75EB030E22BF56
:1007D000B61A754640EA9C005B084FEA3202B6EB57
:1007E000020E75EB030E22BFB61A754640EADC0016
:1007F00055EA060E18D04FEA051545EA16754FEA78
:1008000006164FEAC30343EA52734FEAC2025FEA95
:100810001C1CC0D111F4801F0BD141EA00014FF024
:1008200000004FF0004CB6E711F4801F04BF0143F5
:100830000020B4F1FD0C88BFBCF5E06F3FF6AFAE11
:10084000B5EB030C04BFB6EB020C5FEA500C50F1A1
:10085000000041EB045170BD0EF0004E4EEA113124
:1008600014EB5C04C2BFD4EB0C0541EA045170BD2B
:1008700041F480114FF0000E013C90E645EA060E6F
:100880008DE60CEA135594EA0C0F08BF95EA0C0F9D
:100890003FF43BAF94EA0C0F0AD150EA01347FF4E5
:1008A00034AF95EA0C0F7FF425AF104619462CE7BC
:1008B00095EA0C0F06D152EA03353FF4FDAE10461F
:1008C000194622E750EA410618BF52EA43067FF470
:1008D000C5AE50EA41047FF40DAF52EA43057FF400
:1008E000EBAE12E74FF0FF3C06E000BF4FF0010C0B
:1008F00002E000BF4FF0010C4DF804CD4FEA410C6F
:100900007FEA6C5C4FEA430C18BF7FEA6C5C1BD03B
:1009100001B050EA410C0CBF52EA430C91EA030FBC
:1009200002BF90EA020F0020704710F1000F91EA19
:10093000030F58BF994208BF90422CBFD8176FEAE7
:10094000E37040F0010070474FEA410C7FEA6C5CB5
:1009500002D150EA013C07D14FEA430C7FEA6C5CBC
:10096000D6D152EA033CD3D05DF8040B704700BFE8
:100970008446104662468C461946634600E000BF36
:1009800001B5FFF7B7FF002848BF10F1000F01BD08
:100990004DF808EDFFF7F4FF0CBF012000205DF8D3
:1009A00008FB00BF4DF808EDFFF7EAFF34BF012058
:1009B00000205DF808FB00BF4DF808EDFFF7E0FFF1
:1009C00094BF012000205DF808FB00BF4DF808ED42
:1009D000FFF7CEFF94BF012000205DF808FB00BFA9
:1009E0004DF808EDFFF7C4FF34BF012000205DF88B
:1009F00008FB00BF4FEA410212F5001215D211D5D3
:100A00006FF47873B3EB625212D94FEAC12343F00B
:100A1000004343EA505311F0004F23FA02F018BF8D
:100A2000404270474FF00000704750EA013005D156
:100A300011F0004008BF6FF0004070474FF0000019
:100A4000704700BF38B50E4B054618784FF47A73DF
:100A5000B3FBF0F30B4A1068B0FBF3F000F092F830
:100A6000044658B90F2D09D8024629464FF0FF30E9
:100A700000F054F8044B20461D6038BD012038BDFD
:100A8000000000200C00002004000020074A08B5E8
:100A90001368032043F01003136000F02DF80020CA
:100AA000FFF7D0FF01F016FA002008BD0020024039
:100AB000034A044B11681B780B441360704700BF56
:100AC000C000002000000020014B1868704700BFE4
:100AD000C000002038B50446FFF7F6FF0546631C4A
:100AE0001EBF044B1B78E418FFF7EEFF401B844247
:100AF000FAD838BD00000020074A0002D36800F48D
:100B0000E06023F4E0631B041B0C43F0BF6343F479
:100B100000330343D360704700ED00E0174B30B55E
:100B2000DC68C4F30224C4F10703251D042B28BF8D
:100B30000423062D4FF0010598BF002405FA03F3A6
:100B400003F1FF3388BF033C1940A14005FA04F4C8
:100B5000013C2240002842EA01024FEA0212A9BFEA
:100B600000F16040064BD2B200F56140BBBF00F01F
:100B70000F00D2B280F800231A5430BD00ED00E01F
:100B800014ED00E00138B0F1807F0AD2F021064B6D
:100B9000064A586082F823100020072298601A60E5
:100BA00070470120704700BF10E000E000ED00E05A
:100BB0002DE9F74F00242646664BDFF8A8E1DFF861
:100BC000A8C10A6832FA06F502D103B0BDE8F08F79
:100BD0004FF0010808FA06F802EA080290457FD1B2
:100BE0004D68122D00F0AA8000F28380022D00F0E3
:100BF000A28077D8002D00F08980012D00F0998027
:100C00004FF00F09FF2A93BF824606F18045083D49
:100C1000D0F800B092BFB500D0F804B0AD0009FA2A
:100C200005F82BEA080804FA05F588BF00F1040A64
:100C300048EA0505CAF80050D1F804A01AF0805F10
:100C40004ED0454D444FAD6926F0030845F00105EF
:100C5000BD61BD6908F1804805F00105019508F501
:100C6000803806F0030B019D4FEA8B0BD8F8085033
:100C700009FA0BF925EA0909384DA84263D005F5B0
:100C80008065A84261D005F58065A8425FD005F572
:100C90008065A8420CBF0325042505FA0BF545EA3B
:100CA0000905C8F808501D681AF4803F14BF1543A1
:100CB00095431D605D681AF4003F14BF15439543CA
:100CC0005D609D681AF4801F14BF154395439D60B5
:100CD000DD681AF4001F14BF2A4325EA0202DA6015
:100CE00001366EE7032D22D0112D89D1CC68043452
:100CF00086E71B4FBD4209D012D8DFF870904D45F2
:100D000004D009F580394D457FF47AAF8C68C4B1C1
:100D1000012C0CBFC0F81080C0F8148008246FE7C5
:100D20007545F3D06545F1D0DFF84490EBE700243A
:100D300066E7CC6864E7CC68083461E7CC680C34BB
:100D40005EE704245CE70025A7E70125A5E7022567
:100D5000A3E700BF0004014000100240000801406A
:100D600000002110000031100000321000001110AE
:100D7000000022108368194214BF01200020704730
:100D80000AB1016170470904FBE700002DE9F34156
:100D9000054608B901203CE00368DB0710D42B6846
:100DA0009F075DD42B68190700F194802B685A07C0
:100DB00000F1BE80E869002840F02C81002028E086
:100DC0008F4C636803F00C03042B07D0636803F0B7
:100DD0000C03082B09D16368DE0306D523689C0346
:100DE000DDD56B68002BDAD1D4E76B68B3F5803FB3
:100DF00012D1236843F480332360FFF765FE064673
:100E000023689803CBD4FFF75FFE801B6428F7D9D3
:100E1000032002B0BDE8F0819BB9236823F480333E
:100E20002360236823F480232360FFF74DFE0646EA
:100E300023689903B3D5FFF747FE801B6428F7D9D1
:100E4000E6E7B3F5A02F236803D143F480232360A2
:100E5000CFE723F480332360236823F48023CBE798
:100E6000674C636813F00C0F07D0636803F00C0342
:100E7000082B10D16368DA030DD423689B0702D5D1
:100E80002B69012B86D123686A6923F0F80343EAB2
:100E9000C203236086E72A695A4B6AB101221A60AD
:100EA000FFF712FE064623689F07ECD4FFF70CFEFF
:100EB000801B0228F7D9ABE71A60FFF705FE06464C
:100EC000236898077FF56EAFFFF7FEFD801B0228B1
:100ED000F6D99DE7AA694A4C4B4BDAB101221A6058
:100EE000FFF7F2FD0646636A9B070DD54FF4FA52F1
:100EF000464B1B68B3FBF2F3019300BF019B5A1EE4
:100F00000192002BF9D151E7FFF7DEFD801B02288B
:100F1000E9D97DE71A60FFF7D7FD0646636A9F07A8
:100F20007FF544AFFFF7D0FD801B0228F6D96FE7AD
:100F3000334CE369D80024D40127E36943F080539C
:100F4000E361E36903F080530093009B304E336804
:100F5000D90518D5EB68012B26D1236A43F001038C
:100F60002362FFF7B1FD41F288368046236A9B0772
:100F70003FD5002F3FF41EAFE36923F08053E361B8
:100F800018E70027E2E7336843F480733360FFF724
:100F90009BFD80463368DA05DCD4FFF795FDA0EBB6
:100FA00008006428F6D933E7ABB9236A41F28838E0
:100FB00023F001032362236A23F004032362FFF773
:100FC00083FD0646236A9807D3D5FFF77DFD801B76
:100FD0004045F7D91CE7052B236A03D143F00403EE
:100FE0002362BAE723F001032362236A23F0040398
:100FF000B6E7FFF769FDA0EB0800B042B6D907E7F6
:101000000010024000004242800442420C000020D6
:10101000007000402A4B5A681C4602F00C02082A55
:101020003DD00023274E022833602BD1FFF74CFD23
:101030000746236899011FD42B6AB3F5803F05D179
:101040006268A96822F400320A436260696A6268D1
:101050000B4322F474121343636001233360FFF7E0
:1010600033FD054623689A013FF5A8AEFFF72CFD36
:10107000401B0228F6D9CBE6FFF726FDC01B02284D
:10108000D7D9C5E6FFF720FD054623689B017FF50C
:1010900095AEFFF719FD401B0228F6D9B8E60128E6
:1010A0003FF4B7AE58682B6A00F480329A427FF45E
:1010B00071AE6B6A00F47010C01A18BF0120A8E668
:1010C000001002406000424230B5194B87B002ACBC
:1010D00003F11005224618685968083303C2AB4271
:1010E0001446F7D101238DF80430022311498DF8FD
:1010F00005304B6803F00C02082A17D1C3F3834272
:1011000006A80244DB0312F8102C0CD54B680A48E1
:10111000C3F34043504306AA134413F8143CB0FBF6
:10112000F3F007B030BD05485043FAE70248F8E74E
:10113000485B00080010024000127A0000093D00E0
:101140002DE9F0410D46044610B90120BDE8F081BB
:10115000454A136803F007038B4229D321688E07A1
:1011600031D4CA0744D4404A136803F007039D42B0
:1011700067D322683D4D12F0040F6ED1130706D5D8
:101180006B68226923F4605343EAC2036B60FFF784
:101190009BFF6B68364AC3F30313D35CD840354BCF
:1011A0001860354B1868FFF74DFC0020BDE8F08152
:1011B000136823F007030B431360136803F007035E
:1011C0009942C2D1CAE7294B11F0040F1EBF5A68D9
:1011D00042F4E0625A60080742BF5A6842F4605223
:1011E0005A605A68A06822F0F00202435A60B8E7D9
:1011F00062681E4E012A33681BD113F4003FA4D04D
:10120000736841F2883823F0030313437360FFF7D8
:101210005BFC07467368626803F00C03B3EB820F54
:10122000A1D0FFF751FCC01B4045F3D90320BDE816
:10123000F081022A02D113F0007FE0E713F0020FE1
:10124000DDE7136823F007032B431360136803F0F3
:1012500007039D427FF479AF8BE76B68E16823F465
:10126000E0630B436B6089E70020024000100240FE
:1012700036D400080C00002004000020022380F86F
:101280003D3003689A6802F00702062A1EBF1A68FA
:1012900042F001021A60012380F83D3000207047BF
:1012A0001A4A036890420AD0B0F1804F07D0A2F5E5
:1012B0009432904203D002F58062904215D14A6880
:1012C00023F070031343114A90420AD0B0F1804FCB
:1012D00007D0A2F59432904203D002F5806290428A
:1012E00003D1CA6823F4407313434A6923F080038F
:1012F000134303608B68C3620B688362034B98429D
:1013000004BF0B690363012343617047002C014054
:1013100010B50446A0B190F83D3003F0FF021BB9B0
:1013200080F83C2000F0F8FD0223206884F83D306E
:10133000211DFFF7B5FF0123002084F83D3010BDCB
:10134000012010BD10B584680A4324F47F4442EAAA
:1013500003232343836010BD90F83C3070B5012B0C
:1013600004464FF0020019D0012384F83D002068A4
:1013700084F83C30836823F47F4323F07703836051
:101380000B68402B65D015D8102B0CD007D853B163
:101390000123002084F83D3084F83C0070BD202BF0
:1013A00001D0302BF4D1826843F0070322F07002A1
:1013B00013431AE0602B34D019D8502BE8D14A6877
:1013C000CE68016A056A21F00A0125F0010505626F
:1013D00083690A4323F0F00343EA06138361026240
:1013E000836823F0700343F057038360D0E7702BCA
:1013F0000CD0B3F5005FCBD1CB684A688968FFF7A2
:10140000A1FF2268936843F4804308E0CB684A68F0
:101410008968FFF797FF2268936843F0770393602A
:10142000B6E74D68CE68016A21F010010162826959
:10143000036A22F4704223F0A00343EA051342EA50
:10144000063282610362836823F0700343F067030E
:10145000CBE74A68CE68016A056A21F00A0125F0E7
:101460000105056283690A4323F0F00343EA06138A
:1014700083610262836823F0700343F04703B4E79B
:1014800090F83C3030B5012B4FF0020314D00468C3
:1014900080F83D306268A3680D68496822F07002E8
:1014A00023F080030B432A436260A360012380F88A
:1014B0003D30002380F83C30184630BD2DE9F84F10
:1014C0000027154B8146DC243E469A4693F800805F
:1014D0000A250FFA84FB18F0010F04D04A4659463A
:1014E00028B201F073FD0136F6B2082E08BF0137AD
:1014F00005F1010508BFBFB2ADB212BF4FEA5808EF
:101500001AF8078000265A2DE5D10134A4B2FA2C2E
:10151000DED1BDE8F88F00BFE0D200082DE9F84F1A
:1015200000278046002002F089FB174B3C243E46F2
:101530009A4693F8009000250FFA84FB19F0010FEA
:1015400004D04246594628B201F040FD0136F6B2B9
:10155000082E08BF013705F1010508BFBFB2ADB2C3
:1015600012BF4FEA59091AF807900026B5F5EC7F2B
:10157000E4D10134A4B2B4F5827FDCD14FF4FA6037
:10158000BDE8F84FFFF7A6BAE488000800000000A5
:101590002DE9F04F04468BB010460D4692461E468C
:1015A000FEF728FFCDE904013046FEF723FF30A304
:1015B000D3E90023FEF784FF00222F4BFFF7AAF8A0
:1015C000CDE9080103F064FA064620460F46FEF70F
:1015D00011FF324680468946DDE904013B46FEF7AD
:1015E0006FFF02460B4640464946FEF7B5FDFFF742
:1015F00001FA03B2DDE90801079303F07FFA8046A0
:1016000028468946FEF7F6FE424606460F46DDE9C5
:1016100004014B46FEF754FF02460B46304639465E
:10162000FEF79AFDFFF7E6F9079B9DF850B000B270
:10163000E11A461B0BFB01F10BFB06F691FBFAF1DD
:1016400096FBFAF689B2B6B26B180190691A079840
:10165000BDF85450A219A41B009002951BB212B2FF
:1016600009B220B202F03CFB0BB0BDE8F08F00BF26
:101670001F85EB51B81E0940008066402DE9F84FE8
:101680000027164B814668243E469A4693F8008010
:10169000E0250FFA84FB18F0010F04D14A465946A1
:1016A00028B201F093FC0136F6B2082E08BF0137CC
:1016B00005F1010508BFBFB2ADB212BF4FEA58082D
:1016C0001AF807800026B5F5F07FE4D10134A4B202
:1016D000B4F5A07FDCD1BDE8F88F00BFE0B700080B
:1016E0002DE9F74F8A469B460025BDF83460BDF8CA
:1016F0003090760807B20FFA82F8ACB20BEB040315
:101700000AEB04011BB2424609B23846CDF80090FC
:1017100002F0B9FAABEB0403AAEB0401CDF8009098
:101720001BB2424609B23846013502F0ACFAAE426D
:10173000E3DA03B0BDE8F08F0A282DE9F84F2ED880
:1017400030D04FF478490027184B4FF487743E4649
:101750009A4693F800800A250FFA84FB18F0010FCF
:1017600004D04A46594628B201F030FC0136F6B2A0
:10177000082E08BF013705F1010508BFBFB2ADB2A1
:1017800012BF4FEA58081AF8078000263A2DE5D113
:101790000134A4B2B4F5967FDDD1BDE8F88F4FF4E3
:1017A000FC69D0E74FF6E079CDE700BFFCB6000852
:1017B00073B51D26184B194A1C881188A4B2B4FBB6
:1017C000F6F41B8889B29BB2994225B20BD31288DA
:1017D0002D2392B2B2FBF6F2121B009012B200213E
:1017E000284602F003F9B4F5967F0AD84FF6FF7346
:1017F000002100932A462D23084602F0F7F802B094
:1018000070BD6FF496731C44A4B2632C94BF4FF464
:10181000FC634FF47843EBE70A0000209C000020B3
:10182000F0B50226134F85B0388802AC124D214620
:101830000A2280B202F0B6FC2B46019400960022E8
:101840006E21642002F020FC0C4A214613889BB2D2
:101850003B8010880A2280B202F0A4FC019400961A
:101860002B464FF478426E21642002F00DFC05B047
:10187000F0BD00BF9C000020BCB700080A0000209B
:1018800037B502234FF6FF740125019300946423BA
:10189000502282210A20FFF723FF0A4B22460193A0
:1018A0000095094B3221822002F0EEFB074B009598
:1018B00001932246064B2821A02002F0E5FB03B04D
:1018C00030BD00BF5D5B0008B0B70008605B00087A
:1018D000D4B700082DE9FF41194C064623780D4680
:1018E000062B904619D1174B00910193164B6E2190
:1018F0004FF4917002F0C8FB062E267018D1114BE0
:1019000001930095104B4FF478426E214FF4917083
:1019100002F0BAFB04B0BDE8F08103AF0A222078E0
:10192000394602F03FFC8DE8A000074B4246DEE757
:1019300003AC0A222146304602F034FC0194E0E771
:10194000080000205B5B0008C8B7000807B54FF42B
:1019500000412048FFF70EFA4FF400618DF80000B7
:101960001C48FFF707FA4FF480518DF80100194821
:10197000FFF700FA4FF480718DF802001548FFF769
:10198000F9F94FF480418DF803001348FFF7F2F99D
:1019900080218DF804001048FFF7ECF904218DF840
:1019A00005000E48FFF7E6F94FF400618DF80600D8
:1019B0000A48FFF7DFF900238DF8070018461DF8E5
:1019C0000320013310434000082BC0B2F7D103B00D
:1019D0005DF804FB0008014000100140000C0140CC
:1019E00008B54FF480710E48FFF7C4F9012802468C
:1019F00014D14FF400510B48FFF7C2F94FF4FA70BD
:101A0000FFF768F8074800224FF40051FFF7B8F9D4
:101A1000BDE8084040F2DC50FFF75CB808BD00BFED
:101A2000000801400010014013B54EF660213C2231
:101A3000B0FBF1F14FF47A74B1FBF2F302FB131136
:101A4000B0FBF4F38DF80410B3FBF2F102FB11329A
:101A500004FB130300208DF80520BDF804209BB281
:101A600062F30F0063F31F4002B010BD2DE9F04197
:101A7000DFF8808086B0D8F80000FFF7D5FF022697
:101A8000194F03AC030C194D0093C2B2C0F30723E6
:101A90003946204602F090FB2B4600224FF482711B
:101AA000019400965A2002F0EFFAFFF70DF8104B60
:101AB0001B68C01AC8F80000FFF7B6FF030C0093BC
:101AC000C2B2C0F307233946204602F075FB0194E9
:101AD00000962B464FF478424FF482715A2002F060
:101AE000D3FA06B0BDE8F08127D40008D4B70008C7
:101AF000A8000020A40000202DE9F3410124E0B259
:101B000000220521FFF7E6FE01344FF4FA70FEF7DC
:101B1000E1FF072CF3D1374C00264FF0080825468B
:101B20004FF47843B7B2822240F2311101934FF45F
:101B3000C8703B46CDF80080FFF72AFD0520FEF770
:101B4000C9FF0020FFF734FEFFF76AFE43F2B062E0
:101B5000238840F231119BB2934223884FF08202D6
:101B60008ABFA3F55A536433303B9BB223800023D2
:101B7000CDF8008001934FF4C8703B460536FFF75F
:101B800007FD732ECCD1642408274FF47843A6B206
:101B9000822240F2311101934FF4C870334600970E
:101BA000FFF7F6FC0520FEF795FF0020FFF700FE8B
:101BB000FFF736FE43F2B0622B8840F231119BB240
:101BC00093422B884FF082028ABFA3F55A536433A5
:101BD000303B9BB22B800023009701934FF4C870D9
:101BE0003346053CFFF7D4FC631DCED102B0BDE8FF
:101BF000F08100BF0A00002010B590B0282200211B
:101C000006A802F0D1FA0021142201A802F0CCFAB1
:101C10004FF480330122022407930E934FF4E01314
:101C200006A806920A920F930D94FFF7AFF80F23C0
:101C30004FF4806201930023214601A8029403938C
:101C400004920593FFF77CFA10B010BD80B58CB0FC
:101C5000FEF71CFFFFF7D0FF1022002108A802F0BA
:101C6000A3FA8C4B4FF400519A698B4842F0100252
:101C70009A619A69002402F010020292029A9A690B
:101C8000012642F020029A619A69022702F020029E
:101C90000392039A9A69814D42F004029A619A690B
:101CA00002F004020492049A9A6942F008029A61CE
:101CB0009B69002203F008030593059BFFF760F87A
:101CC000002248F22F017648FFF75AF8002247F227
:101CD0007B017448FFF754F84FF4005308A96E488D
:101CE000089309960A940B97FEF762FF4FF440435E
:101CF00008A96948089309940A94FEF759FF48F225
:101D00002F0308A96648089309960A940B97FEF7D3
:101D10004FFF41F6101308A96148089309940A94EB
:101D2000FEF746FF47F27B0308A95E480893099631
:101D30000A940B97FEF73CFF40F6840308A9594824
:101D4000089309940A94FEF733FF2146102208A84D
:101D500002F02AFA4723544A284685E80C004FF639
:101D6000FE73AC60EB602C616C61AC61069407940F
:101D7000FFF7CEFA4FF4805308A928460893FFF7DF
:101D8000EBFA06A9284606940794FFF779FB284644
:101D9000FFF774FA00F07EFC444D28806420FEF7C3
:101DA00099FE288801F0A4FB304601F0CFF94FF4EA
:101DB0007840FFF7B3FB204601F040FF3C4B224642
:101DC00018780521FFF786FD4FF6FF70FFF756FCE8
:101DD0004FF4FC60FFF772FB4FF4FC60FFF7ACFCC4
:101DE000FFF74EFD334B009601934FF6FF72324BD7
:101DF0008C2140F23B1002F047F9304B00960193E2
:101E00004FF6FF722C4B4FF4AF71692002F03CF992
:101E10002B4B009601934FF6FF72274BC82182206F
:101E200002F032F94FF478450823822240F2311152
:101E30004FF4C8708DE828002346FFF7A9FBFFF791
:101E4000EFFC2046FFF7B4FC1E4B1F4E1F4C0193C6
:101E50002A46194B4FF492715A20009702F014F958
:101E60000A223146207802F09DF90323019600935F
:101E70002A46174B0A21692002F006F923780BB194
:101E8000FFF7F4FDFFF738FEFFF760FDFFF7A8FD51
:101E9000F4E700BF0010024000100140CC00002019
:101EA00000080140000C0140002C01409E00002071
:101EB000080000200CD40008D4B7000811D4000892
:101EC0001AD400081ED40008C8000020A00000207A
:101ED000BCB700080E4B82B09A6942F001029A61C9
:101EE0009A6902F001020092009ADA6942F0805287
:101EF000DA61DB69074A03F080530193019B536861
:101F000023F0E06343F00073536002B0704700BFFA
:101F100000100240000001400268084B82B09A4263
:101F20000AD103F564439A6942F400629A619B699D
:101F300003F400630193019B02B07047002C014041
:101F40007047FEE7FEE7FEE7FEE770477047704721
:101F5000FEF7AEBD08B50A4B0246196809B9094932
:101F600019606946186802448A4206D902F0D8F816
:101F70000C2303604FF0FF3008BD1A6008BD00BF9E
:101F8000AC0000202C0100200F4B1A6842F0010227
:101F90001A6059680D4A0A405A601A6822F0847221
:101FA00022F480321A601A6822F480221A605A6879
:101FB00022F4FE025A604FF41F029A604FF0006252
:101FC000034B9A60704700BF001002400000FFF80A
:101FD00000ED00E00022FEF7D3BE0122FEF7D0BEE6
:101FE0002DE9F84307464FF4F6080E46424C02210D
:101FF0002046FFF7EFFF20460421FFF7EBFF3B0AE7
:102000005A0399103D4DDFF8F89001F0200102F4D9
:1020100000420A4303F07B03C4F810902046C5F841
:102020001080082122612B61FFF7D4FF2046082190
:10203000FFF7D3FFFFB220460821FFF7CEFF7B0357
:10204000BA1002F0200203F40043134307F07B07A9
:10205000C4F810902046C5F81080082123612F6134
:10206000FFF7B8FF20460821FFF7B7FF20460821F9
:10207000FFF7B3FF20460421FFF7AFFF330A5A03EF
:10208000991001F0200102F400420A4303F07B039F
:10209000C4F810902046C5F81080082122612B61F9
:1020A000FFF798FF20460821FFF797FFF6B220467A
:1020B0000821FFF792FF7303B21002F0200203F42D
:1020C0000043134306F07B06C4F810902046C5F881
:1020D0001080082123612E61FFF77CFF2046082134
:1020E000FFF77BFF20460821FFF777FF2046BDE87A
:1020F000F8430221FFF771BF00080140000C0140C6
:102100000000208070B50C464FF6FF76051D002CB0
:1021100000DC70BD35F8040C35F8021CB04206D165
:102120000846FEF7D7FC043C24B20435EFE7FFF77E
:1021300057FFF8E72DE9F04706464FF4F609174632
:102140003B4C884620460221FFF744FF04212046ED
:10215000FFF740FF330A5A039910364DDFF8D8A035
:1021600001F0200102F400420A4303F07B03C4F8AB
:1021700010A00821C5F81090204622612B61FFF7BE
:1021800029FF08212046FFF728FFF6B20821204644
:10219000FFF723FF7303B21002F0200203F40043A1
:1021A000134306F07B06C4F810A00821C5F8109070
:1021B000204623612E61FFF70DFF08212046FFF71F
:1021C0000CFF08212046FFF708FF04212046FFF7F7
:1021D00004FFB946264607EB0803A3EB09035BB2ED
:1021E000002B05DC0221BDE8F0471148FFF7F5BEE2
:1021F0004FF4F60219F8013BC4F810A099102A61B7
:102200005A0301F0200102F400420A4303F07B0369
:10221000226130462B610821FFF7DCFE30460821A1
:10222000FFF7DBFE08213046FFF7D7FED3E700BFFC
:1022300000080140000C01400000208070B50346FA
:102240000C4686B0002C01DC06B070BD1E4616F8A8
:10225000020B5D787F280CD032460DF1FF31931BC5
:10226000DBB29D420ED86A4669B22E44FFF762FF88
:1022700003E02846FEF72EFC0025023C641B24B236
:102280003346DFE712F8013B01F8013FE7E71FB5EE
:10229000002301930123009169460293FEF788FC15
:1022A00005B05DF804FB1FB50123019300230293E1
:1022B0000323009169460393FEF77AFC05B05DF8AD
:1022C00004FB0000014B1888704700BF120000207B
:1022D000014B1888704700BF10000020044BC90054
:1022E00001F4FC6141EAD20103EA0020084370478F
:1022F00000F8FFFF38B5124C124D20460121FFF7C0
:10230000C6FF20460221FFF7C2FF28464FF40041D6
:10231000FFF7BDFF20460821FFF7B9FF2046102137
:10232000FFF7B5FF20462021FFF7B1FF20464021EF
:10233000FFF7ADFF2846BDE838402021FFF7A7BFD3
:10234000000C01400008014038B5124C124D2046E7
:102350000121FFF7A8FF20460221FFF7A4FF28462E
:102360004FF40041FFF79FFF20460821FFF79BFF36
:1023700020461021FFF797FF20462021FFF793FF0B
:1023800020464021FFF78FFF2846BDE83840202136
:10239000FFF789BF000C01400008014038B5012556
:1023A0001F4B204C1D70FFF7CFFF20461021FFF779
:1023B0007AFF20460821FFF776FF20460421FFF729
:1023C00072FF20460221FFF76EFF29462046FFF7E5
:1023D0006AFF20460221FFF700FE20461021FFF78A
:1023E000FCFD20460821FFF7F8FD29462046FFF7AF
:1023F000F4FD3220FEF76EFB29462046FFF7EAFD8A
:102400006420FEF767FB29462046FFF7E6FD6420BF
:10241000FEF760FBBDE838400021B020FFF7E0BDCB
:10242000B4000020000801402DE9F04F834B8DB02F
:102430001B78064688460BB9FFF7B0FF4FF4F60746
:102440007F4D02212846FFF7C5FD04212846FFF7EE
:10245000C1FD330A5A0399107A4CDFF8EC9101F070
:10246000200102F400420A4303F07B03C5F81090F8
:102470000821276128462A612361FFF7ABFD082167
:102480002846FFF7AAFDF6B208212846FFF7A5FD6A
:102490007303B21002F0200203F40043134306F06A
:1024A0007B06C5F810900821276128462B6126611C
:1024B000FFF790FD08212846FFF78FFD08212846E9
:1024C000FFF78BFD04212846FFF787FDFFF712FF7A
:1024D0000120FEF7FFFA2E4610213046FFF77DFD62
:1024E00010213046FFF776FD10213046FFF772FDD0
:1024F00010213046FFF76EFD10213046FFF76AFDD0
:10250000A36810210093A36830460193AB6808F1DB
:10251000FF380293A3684FFA88F80393A3680493E3
:10252000A3680593A3680693AB680793FFF755FD6F
:1025300010213046FFF751FD10213046FFF74DFDC9
:1025400010213046FFF746FD10213046FFF742FDCF
:1025500010213046FFF73EFD10213046FFF73AFDCF
:10256000A36810210893A36830460993AB68D4F898
:1025700008900A93D4F808A0A368D4F808B00B9385
:10258000AF68FFF72AFD10213046FFF726FDB8F1AE
:10259000000FA1DA10212A48FFF71FFD0221284869
:1025A000FFF71BFDFFF7D0FE059B0BF0400B03F080
:1025B0002000069B099A03F04005049B284303F082
:1025C0001005039B284303F00805019B284303F0F3
:1025D00002031843009B0AF0100A03F0010318439A
:1025E000079B09F008099B0003F080031843029B36
:1025F000BF005B0B03F0040318430B9B27F07F071E
:1026000003F0200343EA0B0343EA0A0343EA090306
:1026100002F00209089A43EA090302F001090A9A42
:1026200043EA09033B43570B07F004073B43DBB284
:1026300043EA00200DB0BDE8F08F00BFB4000020D9
:1026400000080140000C01400000208038B5002146
:102650000546FFF7E9FE012104462846FFF7E4FEA0
:1026600040EA044038BD70B500210446FFF7DCFEA7
:10267000012106462046FFF7D7FE022105462046E7
:10268000FFF7D2FEC0F30F2040EA066040EA0520C3
:1026900070BD000013B500210846FFF7C5FE45F2E6
:1026A0000843984220D045F2204398421CD048F677
:1026B0008913984200F0BA8000216720FFF7B4FE2A
:1026C00044F24773984200F0B480A120FFF7BEFFA8
:1026D00046F2011380B2984200F0AE804FF6FF73CD
:1026E000984203D141F2265002B010BDBF20FFF73F
:1026F000BAFF48F2573380B29842F5D049F281438D
:102700009842F1D041F211539842EDD0B0F5A95F53
:10271000EAD041F226539842E4D041F281539842E4
:10272000E2D0B0F5A05F00F08A80D420FFF78EFFE2
:1027300045F2103380B29842D6D0D720FFF786FFFB
:1027400048F2310380B29842CED0EF20FFF78BFFE2
:1027500049F2273380B29842C6D0FE20FFF776FFB9
:1027600042F25303C0F30F209842BDD00420FFF77C
:102770006DFF0446C4F3074480B2E4B9B0F5004FDE
:1027800019D1334B03211A889B78ADF80420B92066
:1027900001AA8DF80630FFF7CDFC2146D020FFF7C7
:1027A00043FEC0B2992804D0902814D149F2900079
:1027B0009AE7992098E741F22653984292D048F63A
:1027C000F01398423ED048F2525398423DD04AF618
:1027D0001143984288D0D320FFF738FF49F26313A2
:1027E000C0F30F2098423FF47FAFD320FFF72EFFB6
:1027F00080B2030A03F16D02D2B2012A7FF674AFF0
:10280000982B3FF471AF772B3FF46EAF162B3FF44C
:102810006BAFD3283FF468AF4DF2D33398423FF407
:1028200063AF00210846FFF7FFFD5DE741F2892015
:102830005AE748F2473057E741F6631054E746F647
:10284000140051E747F235704EE747F289704BE7C5
:10285000585B00082DE9F341154649F227321C4622
:10286000444B07461B880E46934239D1424B1B7896
:10287000022B2ED12036203436B224B23F4B1A8898
:10288000984612F0010F40D03D4B01AA18883B1228
:102890008DF8043004212B12C0B28DF806308DF86B
:1028A00005708DF80750FFF745FC364B01AA1888D4
:1028B00033128DF8043004212312C0B28DF8056064
:1028C0008DF806308DF80740FFF734FC02B0BDE804
:1028D000F081032BD2D1203720353FB22DB2CDE786
:1028E00041F226529342C9D1234B1B78D907C5D553
:1028F000A3B29A1B92B212B901331CB2BEE7A8422E
:1029000002BF121815B23446B8E71F4BB9B2188887
:10291000FFF766FB1D4BB1B21888FFF761FBBD42A4
:1029200001D1B442D2D0B8F800309A060CD5124B7F
:102930001B78DB074BBF46EA042647EA052736B279
:102940003FB24CBF34463D460D4BB9B21888FFF735
:1029500047FB0C4BB1B21888FFF742FB0C4BA9B2F6
:102960001888FFF73DFB0B4BA1B21888FFF738FB27
:10297000ACE700BF1E010020B600002010010020BF
:102980001A01002012010020180100201601002069
:10299000220100201C0100202DE9F04F8BB0049390
:1029A000BDF95030039205932A4BBDF810201C88C6
:1029B000BDF8143003FB02F50FFA85FB264D2D8878
:1029C00015F0010F254D18BF2E242E8841F2026507
:1029D000AE4208BF2E240026B14685B201958DB2C5
:1029E0000295013D2B44019D1BB2013D2A4412B2C8
:1029F000FFF730FF230AE2B2009259039A1003F066
:102A00007B0301F4004102F020020793009B0A437C
:102A100006925A039B1002F4004203F02003134372
:102A20000F4C104D0893BBF1000F0B4B20DC1988A5
:102A300011F001010AD10C4B0C4A1B881288013B92
:102A4000013A1BB212B20846FFF704FF00200BB098
:102A5000BDE8F08F0E010020100100201E010020B3
:102A600000080140000C014010000020120000206E
:102A70001B88D9070ED4019B9919D24B89B21888AB
:102A8000FFF7AEFA029B03EB0901CF4B89B218881E
:102A9000FFF7A6FA4FF4F6070221CC48FFF79AFA9F
:102AA0000421CA48FFF796FADFF83083069BC4F882
:102AB00010802F612361079B08212B61C348FFF71A
:102AC00089FA0821C148FFF788FA0821BF48FFF7B3
:102AD00084FA089BC4F810802F612361009B0821B1
:102AE00003F07B032B61B948FFF774FA0821B7485C
:102AF000FFF773FA0821B548FFF76FFA0421B348CE
:102B0000FFF76BFAFFF7F6FBB14B1B885A062DD483
:102B1000DF074FF01001204606D4AE4B1A8841F271
:102B200089239A4240F07E81FFF757FA1021204610
:102B3000FFF750FA10212046FFF74CFA10212046EB
:102B4000FFF748FA10212046FFF744FA10212046EB
:102B5000AB68AB68A368AB68AB68AB68AB68A368ED
:102B6000FFF73BFA10212046FFF737FA994B1A88F6
:102B700041F211539A4223D110212046FFF72DFA3A
:102B800010212046FFF726FA10212046FFF722FAEF
:102B900010212046FFF71EFA10212046FFF71AFAEF
:102BA00010212046AB68AB68A368AB68AB68AB6824
:102BB000AB68A368FFF711FA10212046FFF70DFA62
:102BC000834B10211B882046DA0640F15081FFF725
:102BD00004FA10212046FFF7FDF910212046FFF7E7
:102BE000F9F910212046FFF7F5F910212046FFF7EB
:102BF000F1F9D5F80880D5F808E0A168A86808F0D0
:102C00000108AB680EF0020ED5F808C048EA0E0EB7
:102C100000F0080003F01003AF684EEA000E4EEA21
:102C2000030E0CF0200C4EEA0C0EA26807F04007D1
:102C3000490B4EEA070701F004013943970007F0FA
:102C400080070F4320461021FFF7C7F910212046C7
:102C5000FFF7C3F910212046FFF7BFF910212046E6
:102C6000FFF7B8F910212046FFF7B4F910212046EC
:102C7000FFF7B0F910212046FFF7ACF9D5F808802E
:102C8000D5F808E0A168A86808F00108AB680EF064
:102C9000020ED5F808A048EA0E0E00F0080003F076
:102CA0001003D5F808C04EEA000E4EEA030E0AF0F3
:102CB0002008A2684EEA08080CF0400C490B48EACC
:102CC0000C0801F0040148EA01014FEA820808F00B
:102CD000800848EA010820461021FFF77EF91021FC
:102CE0002046FFF77AF910212046FFF776F91021E8
:102CF0002046FFF76FF910212046FFF76BF91021EE
:102D00002046FFF767F910212046FFF763F9D5F851
:102D100008C0D5F808E0A268A8680CF0010CAB6800
:102D20000EF0020ED5F808A0A9684CEA0E0E00F0CD
:102D3000080009914EEA000E03F010034EEA030E5C
:102D4000099B0AF0200A03F0400CA1684EEA0A0A27
:102D5000520B4AEA0C0A02F004024AEA02024FEA63
:102D6000810A204610210AF0800A4AEA020AFFF787
:102D700034F910212046FFF730F9154B1B885B070B
:102D800043BF3A464146504652465CBF41463846EC
:102D9000FFF7A4FA104B1B7853B14311C0F344085A
:102DA00003F0200343EA080320F03F00184380B2F9
:102DB000039B074A23F8020B128803930BF1FF339E
:102DC0000EE000BF1801002016010020000801409D
:102DD000100100201E010020B5000020000020800E
:102DE0009BB292070FFA83FB03D5002B7FF4E8AE6A
:102DF0009B460136049B36B2B34208DC002609F13B
:102E000001030FFA83F9059B4B45D8BFB146204615
:102E10001021FFF7E2F802212046FFF7DEF8FFF766
:102E200093FA00E6FFF7D9F810212046FFF7D2F811
:102E300010212046FFF7CEF810212046FFF7CAF8F0
:102E400010212046FFF7C6F810212046AB68AB687A
:102E5000A368AB68AB68AB68AB68A368FFF7BDF865
:102E600010212046FFF7B9F8102120465CE6FFF755
:102E7000B4F810212046FFF7ADF810212046FFF7E7
:102E8000A9F810212046FFF7A5F810212046FFF7EA
:102E9000A1F8D5F80880D5F808E0A168A86808F07E
:102EA0000108AB680EF0020ED5F808C048EA0E0E15
:102EB00000F0080003F01003AF684EEA000E4EEA7F
:102EC000030E0CF0200C4EEA0C0EA26807F040072F
:102ED000490B4EEA070701F004013943970007F058
:102EE00080070F4320461021FFF777F81021204676
:102EF000FFF773F810212046FFF76FF810212046E6
:102F0000FFF768F810212046FFF764F810212046EB
:102F1000FFF760F810212046FFF75CF8D5F808A00D
:102F2000D5F808C0A168D5F808E00AF0010AA86839
:102F30000CF0020CAB680EF0080E4AEA0C0CD5F847
:102F400008804CEA0E0C00F0100003F020034CEA5D
:102F5000000C4CEA030CA26808F040084CEA080C8C
:102F60004FEA513808F0040892004CEA080802F0D1
:102F700080021021204648EA0208FFF72EF81021AF
:102F80002046FFF72AF80A4B48EA07201B881F074C
:102F900042BF4FEA002848EA102080B2590741BFDB
:102FA00000F4FC6848EAD02848EAC02080B2F1E684
:102FB000100100201FB501230DF10E020093FFF751
:102FC000EBFCBDF80E0005B05DF804FB10B514462F
:102FD000021E0B461DDB00291BDB0E4909888A42B5
:102FE00017DA0D4909888B4213DA0C49097829B19F
:102FF000610001F03E0124F03E040C4319461046E6
:10300000FFF728FC064B2146BDE810401888FEF764
:10301000E7BF10BD1200002010000020B500002006
:103020000E010020454BF7B51E8849F227339E421A
:10303000154606D1424B1B78023B012B9CBF20302A
:1030400000B249F2273784B28AB2A318BE429BB2BB
:10305000C1F1000714BFC3F5F073C3F50073BD429F
:103060009BB238DDA942D8BF00252C44354F002D36
:10307000A4B2B8BFA4183A88B8BFA4B2D2072CD55E
:1030800002128DF800200A128DF8022043F3072265
:103090008DF801008DF803108DF8042006216A4692
:1030A00033208DF80530FFF745F844F307236A46CF
:1030B000022137208DF800308DF80140FFF73AF8F3
:1030C0003DB93B88DB0704D52A4629461320FFF784
:1030D00031F803B0F0BD0025C7E747F293739E4275
:1030E000194B15D00CD845F22042964210D047F229
:1030F000837296421AD0198841F0020189B216E013
:1031000049F22632964203D04BF209529642F2D14E
:10311000198840F2014041F0020189B2FEF760FFD8
:10312000214640F20440FEF75BFFD2E71988612098
:10313000FEF756FF21466A20F5E700BF1E0100207A
:10314000B6000020100100201401002000F003034D
:1031500000F00100002814BF4FF4F0714FF4A0718B
:10316000B44A2DE9F04F13709346B34A85B01180ED
:1031700014BF4FF4A0714FF4F0710092AF4A022BCC
:103180001180914600F09D80032B00F09C80012B64
:1031900014BF48232823AA4A8DF80B30138892467F
:1031A00013F4807F18BF9DF80B20DFF8B8821CBF96
:1031B00082F080028DF80B209D0548BF9DF80B2002
:1031C000A04F44BF82F040028DF80B201C0548BF81
:1031D0009DF80B209C4E44BF82F008028DF80B2016
:1031E0009A4A13F0010F9A4C9A4B9B4D128800F0AB
:1031F000A78046F614018A4267D19DF80B1001930F
:1032000011F0800F14BF4022002211F0400F14BFB4
:103210002020002042F00202024301F028018DF834
:103220000B108DF80D2000213B228DF80C108DF82D
:103230000E20032103AAB620FEF77CFF019B2C2061
:103240002A212B221880854BA8F800101A803A807A
:10325000318021802A8001210DF10B023620FEF7FA
:1032600069FF9DF80B207E4B1A809BF80030DA072F
:1032700012D5BAF800305B050ED4B8F800303A88A1
:103280003B803388A8F800202A882B80734B32803B
:103290001988228821801A800021009AB9F800300C
:1032A0001288013B013A1BB2084612B2FFF7D2FA6C
:1032B00000224FF4F0711046FFF7B4FE05B0BDE8F0
:1032C000F08F982367E7F82365E741F663118A4298
:1032D00007D049F281418A4203D041F211518A421A
:1032E000ADD19DF80B10080644BF41F001018DF8E7
:1032F0000B109DF80B10480644BF41F002018DF8F9
:103300000B1041F663118A4206D19DF80B2002F0A2
:103310003F028DF80B2092E749F281418A4204D1A5
:103320009DF80B2002F02F02F3E741F211518A427F
:1033300085D19DF80B2022F0100262F03F02E8E7F1
:1033400047F293718A42454904D04FD845F2204054
:10335000824255D14FF40070A8F8000040F20120DD
:10336000388040F2022018804FF40473338040F21A
:103370001123238040F212232B8040F213230B8071
:103380009DF90B30002B49F22633B4BF4FF40041B6
:1033900000219A4231D045F220439A420CBF4FF4AB
:1033A00054524FF4D4424FF480601143FEF718FE9C
:1033B0009DF80B30012013F0400F14BF4FF48071C3
:1033C0000021FEF70DFE9DF80B3013F0200F14BF07
:1033D00008210021180748BF41F48051204B41F0DB
:1033E000300103201980FEF7FBFD3EE749F226304D
:1033F0008242AFD04BF20950AAE74FF45452D2E7C1
:103400002022A8F8002021223A8022221A8050236C
:1034100033805123238052232B8053230B809DF92B
:103420000B1060200029B4BF4FF427414FF41C510A
:10343000BCE700BFB60000201200002010000020F2
:1034400010010020160100201A0100201E0100209A
:10345000220100200E010020120100201C0100208A
:1034600024010020180100201E4B30B41C881E4D82
:10347000C4F3003383EA000291B2E407298008D53F
:1034800030BC0022834214BF212020201146FEF7C9
:1034900051BE47F29370154B1B88834207D00BD85F
:1034A000B3F5AA7F14D045F22042934217D141F0E0
:1034B000020140F201400FE049F226308342F6D08B
:1034C0004BF209508342F2D049F22520834206D1C3
:1034D0000720910041F0130130BCFEF781BD61204F
:1034E000FAE700BF10010020140100201E01002097
:1034F000F7B50022C94BCA4F1A8049F202339842ED
:103500003880C84C00F0D28100F2898042F2530327
:10351000984200F0C58132D841F21153984200F030
:10352000FD800ED8992800F05C8141F20553984245
:1035300000F09380012800F062814FF00002BA4B46
:10354000E8E141F22653984200F0318108D8B0F505
:10355000A95FF2D140F2134306262380B34DE8E081
:1035600041F28153984200F0AA8141F202639842ED
:10357000E3D140F2034306262380AD4DD9E047F264
:103580009373984200F0BC8125D845F208439842D5
:1035900063D011D845F210339842CED140F6136370
:1035A0004FF4F0722380A34B02261A804FF4A072CE
:1035B0009D4BA14D1A80BCE046F60903984200F0ED
:1035C000278147F289739842B7D140F213434126CD
:1035D00023809A4DADE048F23103984200F0ED802F
:1035E00011D847F296739842A7D140F203434FF4A3
:1035F000F07223808F4B2B261A804FF4A0728A4BD7
:103600008F4D1A8095E048F25733984200F0DB80E6
:1036100049F29003984290D141F21343D5E049F228
:103620004133984237D849F24033984280F0418183
:1036300049F22833984200F01F8111D849F225330E
:10364000984200F0198149F22733984200F01A811C
:1036500049F2203398427FF470AF41F20403D0E086
:1036600049F23133984200F00A8107D849F22933F0
:1036700098427FF462AF41F2036313E149F23533BC
:10368000984200F0FC8049F2383398427FF455AFFD
:1036900040F2134306E149F28843984221D849F2A7
:1036A0008743984280F0298149F28143984200F093
:1036B000148149F2864398425B4B00F0118149F234
:1036C000423290427FF439AF41F213524FF0F00191
:1036D0002280584A382611804FF4A072594D1A8022
:1036E00027E04BF20553984212D007D84AF611430F
:1036F00098427FF422AF41F21343D3E04BF20953D7
:10370000984200F0FD804CF2055398427FF415AFCB
:1037100041F20803B02123804B4875E04FF4F0726A
:103720000326444B26801A804FF4A0723E4B474D2F
:103730001A802388464AC3F3003313805DB1092100
:103740004448FEF77BFD31462846FEF777FD06210B
:103750004148FEF773FD0020FFF7F8FC0020FFF75B
:1037600083FE49F288433A889A421ED100253B4E97
:103770004FF6E072294628463570FFF727FC2946A8
:103780002846FFF717FC4FF61F7398420DD106230A
:1037900002AA02F8013D01213A20FEF7CBFC238862
:1037A00023F0100323800123337003B0F0BD40F2F7
:1037B00013430C2623802A4DBBE741F21343122604
:1037C0002380284DB5E741F203434FF4F072238084
:1037D000184B02261A804FF4A072134B224D1A8008
:1037E000A7E741F213434FF4F0722380114B1D26DB
:1037F0001A804FF4A0720C4B1C4D1A8099E74FF4BD
:103800008853D8211A482380FEF77CFC002590E7D6
:1038100041F202132380CC211648F5E72001002055
:103820001E01002010010020C5220008FBD800085E
:103830004ED90008D122000885D700080DD900080C
:103840005AD70008A2D6000888D70008F8D8000880
:103850001401002054D900085DD90008B5000020EB
:1038600001D9000846D4000858D400085AD40008EA
:1038700078D4000850D500084FF48853CAE74FF4B5
:103880008053C7E740F203434FF4C8722380224BB2
:103890001E261A804FF0F002204B214D1A8048E777
:1038A00041F21743238003261E4D42E740F20343B3
:1038B000F8E740F21343652623801B4D39E740F2B9
:1038C00013434FF4F0722380134B45261A804FF4B4
:1038D000A072124B154D1A802BE740F20743F0E718
:1038E00040F203424FF4F07122800B4A3B261180D4
:1038F0004FF4A0720E4D1A801BE740F2134376E698
:103900004FF48053C0210B482380FEF7FBFB4FF49C
:10391000C872014B1A8079E7D1220008C52200083D
:103920001CD600083AD600083DD60008DAD60008B2
:103930001FD7000838D800082DE9F74F16465F1A40
:10394000A6EB0008002FB8BF7F42B8F1000FB8BF48
:10395000C8F10008474504460D461A46BDF830B088
:1039600004DD33460C46164605461A46B44205DDCC
:103970002B4615461A46234634461E46A2EB050A38
:103980005346002BB8BF5B4201930223A6EB040908
:103990001FFA89F90FFA89F191FBF3FA9542B4BF46
:1039A00001234FF0FF330093B44202DD03B0BDE8C2
:1039B000F08F47455A46C7BF21462846294620462C
:1039C000FFF704FB019BAAEB03039AB20FFA82FAFA
:1039D000BAF1000F06DA009B1D4409EB02032DB279
:1039E0000FFA83FA013424B2DEE700002DE9F04F2C
:1039F000884C87B02478BDF840602CB1740004F086
:103A00003E0426F03E062643002A04DA94B26242BF
:103A1000204412B200B2804D02442C8812B2A2425D
:103A2000C8BF22B220EAE07092B2171A002B0495A8
:103A30003FB204DA9CB2634221441BB209B24FF494
:103A4000F60A764C0B4424881BB2A342C8BF23B2AB
:103A500021EAE1719BB2724C5D1A013A013B1BB243
:103A600012B2FEF7F7FE02212046FEF7B3FA042158
:103A70002046FEF7AFFA6B4BDFF8B891B3F8008041
:103A8000DFF8B4B14FEA18235A03991001F020016E
:103A900002F400420A4303F07B03C4F810B008218B
:103AA000C9F810A020462261C9F81030FEF792FA3A
:103AB00008212046FEF791FA5FFA88F8082120468F
:103AC000FEF78BFA4FEA48334FEAA80202F02002D1
:103AD00003F400431343C4F810B0C9F810A02361E5
:103AE00008F07B03C9F8103008212046FEF772FA6F
:103AF00008212046FEF771FA08212046FEF76DFAEC
:103B00002DB204212046FEF768FAAF42BEBF3B4605
:103B10002F461D46330ADAB201925A039B1002F473
:103B2000004203F02003F6B2134302934FEA4639F2
:103B3000B31009F4004903F0200349EA0303DFF856
:103B4000F8B0DFF8DC80DFF8EC900393ADB22AB276
:103B5000002A20DC02213248FEF73FFA324B1B8854
:103B6000DA0709D5314B1A8841F226539A424ED1D1
:103B70002F4B1B78DB074AD500210846049A274BB8
:103B800012881B88013A013B1BB212B207B0BDE894
:103B9000F04FFEF75FBEBA464FF4F602029BC4F840
:103BA00010B0C9F8102005922361019B404603F034
:103BB0007B01C9F810100821FEF70CFA08214046D5
:103BC000FEF70BFA08214046FEF707FA059A039B19
:103BD000C4F810B0C9F8102006F07B022361082158
:103BE000C9F810204046FEF7F5F90AF1FF3A08211E
:103BF0004046FEF7F2F90FFA8AFA08214046FEF72E
:103C0000ECF9BAF1000FC7D1013DADB29FE707B0A3
:103C1000BDE8F08FB5000020120000201000002049
:103C2000000801400E010020100100201E010020AC
:103C3000B6000020000C01400000208007B50021E4
:103C4000064B074AB3F90030B2F90020009008464D
:103C5000FFF7CCFE03B05DF804FB00BF10000020AE
:103C60001200002007B5009313460122FFF7BEFEA5
:103C700003B05DF804FB07B500930123FFF7B6FE20
:103C800003B05DF804FBF0B5904206460F461446BB
:103C90001D46BDF814E00DD19942C2BF0B462F4618
:103CA0001D466A1CD21B73463946BDE8F04012B26D
:103CB000FFF7D8BF99420DD19042C2BF03461C46C0
:103CC0001646621C921B73463046BDE8F04012B2A5
:103CD000FFF7D1BFCDF814E0BDE8F040FFF72CBEF0
:103CE0002DE9F04F994289B00F461C46BDF9485066
:103CF000BDF94C60BDF850B06BDDB14275DC3B46A0
:103D000027461C46034610461A46B74216D1904233
:103D1000DEBF134602461846AA4204DC8542B8BFFD
:103D2000054628B215460130421B5B4639462846F7
:103D300012B209B0BDE8F04FFFF79DBF33463E46D3
:103D40001F462B460546184657E01F4613460246B7
:103D5000F9E7019B069A059993FBF2F0039B28442F
:103D60009AFBF3F2019B2A4400B212B20B44904238
:103D70000193C2BF034610461A460132121A414649
:103D80005B4612B208F10108CA44FFF774FF0FFA4C
:103D900088F85DE0079B414694FBF3F0009B08F137
:103DA00001081844039B00B296FBF3F22A44049BDB
:103DB00012B290421C44C2BF034610461A4601325A
:103DC000121A5B4612B24E44FFF755FF0FFA88F8FD
:103DD0004AE0B34299DDB1420C46B6DC37461E4696
:103DE0001346024628461D4689E7B34205DC3346A2
:103DF00026461C462B4615461A464FF0000AB0468A
:103E000093B2ADB200935B1B1BB2B2B20593A3B2E7
:103E1000991A09B20691B9B28A1A12B20392009A9B
:103E200080B2BC42A0EB0509A0EB0200A1EB0301AC
:103E300002B218BF03F1FF33049218BF1BB20AB2DB
:103E40000FFA89F9079214BF02930294CDF804A0E7
:103E5000029B98457FF77DAF049BA8EB0404A8EB79
:103E600006065C4309FB06F6B84593DD09B0BDE8DC
:103E7000F08F00002DE9F04F8FB00693424B9DF874
:103E800064901D68B9F1010F2B7A98BF4FF0000ABA
:103E9000A2EB03024FF00A03D2B203FB02F2AB889B
:103EA0002D8802EB030432F803B0A37894F90820BC
:103EB0000393237980B2099394F907301FFA89F4A8
:103EC00004930590089520464FF0000594BF534693
:103ED000BDF910300294059C2E4603FB00432C468E
:103EE0009BB20B938BB20793134488BF0FFA82FAED
:103EF0000D93099B9C4243D2029A07990AEB040353
:103F000003FB02131BB20A930D9B0B9F23441BB2AE
:103F10004FF000080C931DE05A0701BF089A0BF1FF
:103F2000010312F80B601FFA83FB33060BD5B9F1BE
:103F3000010F1BD1049A059B0C9998184044069ACE
:103F400000B2FFF743F8029B76001F44F6B208F177
:103F50000108BFB203995FFA88F2AB189142DBB255
:103F6000DAD80D440134EDB2E4B2C2E7069A0FFA92
:103F700089F300920A991A4638B2FFF737FDE2E753
:103F80000FB0BDE8F08F00BFC40000200A28F7B5CD
:103F900002460FD100222A4B1A802A4B2A4A1B685C
:103FA0001188987A294B1B7800FB0313138001209A
:103FB00003B0F0BD0D28FAD0224B1868047AA24253
:103FC000F5D3437A9342F2D30A218388141B01FB71
:103FD000043494F802E0BEF1000FE8D02379002BFE
:103FE000E5D01B4B164D1B78174F184EA3B194F913
:103FF000073031787344B5F800E001FB03E3DFF8E4
:104000005CE0BEF800E0734506DD0023807A2B807B
:104010003B8800FB01313980B7F900100D4B377830
:104020001B8801970C4FB5F900003F880097FFF7F8
:1040300021FF2A88A179337801FB03232B80B6E77F
:10404000B0000020C4000020B200002018000020B2
:10405000190000201600002014000020120000208B
:10406000074B1A6830B11AB906490A8806320A8025
:1040700018607047002AFBD002490A88063AF6E722
:10408000C4000020B2000020F8B59DF81840054695
:10409000174618460E46FFF7E3FF002C08BF012421
:1040A000084B1F80084B1C70084B079C1E80084B58
:1040B000013C1D8014F8010F00B9F8BDFFF766FF41
:1040C000F8E700BF1600002018000020B000002014
:1040D000B2000020002103E00B4B5B584350043139
:1040E0000A480B4B42189A42F6D30A4A02E00023D0
:1040F00042F8043B084B9A42F9D3FDF745FF00F024
:1041000015F8FDF7A3FD7047A0DB000800000020B4
:1041100080000020800000202C010020FEE700002D
:10412000014B1868704700BF1C00002070B50025C7
:104130000C4E0D4CA41BA410A54209D101F0F6FCB5
:1041400000250A4E0A4CA41BA410A54205D170BD3F
:1041500056F8253098470135EEE756F82530984750
:104160000135F2E798DB000898DB000898DB0008CF
:104170009CDB0008931E222B10B50C4604D90023AB
:104180001C460B70204610BD0A2A09D1002807DA08
:104190002D230B7001214042214400F031F8F1E75A
:1041A0000021F9E7FFF7E6BF03460244934200D13E
:1041B000704703F8011BF9E70EB44FF4027100B524
:1041C0009CB0ADF814106FF00041049107914FF6C8
:1041D000FF711DAB02900690084853F8042BADF810
:1041E0001610006802A9019300F0A6F80022029BB5
:1041F0001A701CB05DF804EB03B070471C0000207F
:10420000F0B58BB003460F466D461C4C04F1200EF2
:104210002E4620686168083403C674453546F7D1D8
:10422000217920683171911E222930604FF0000100
:1042300004D939700F4638460BB0F0BD781E0646DB
:10424000B3FBF2F502FB15330DF1280E734413F89E
:10425000283C4C1C06F8013F2B4665B93D557A18A1
:10426000CC1AA342E7DA44781578013300F8015FED
:1042700002F80149F4E72146E2E700BF63D90008EC
:104280002DE9F0478E6882469E420C46914698463C
:1042900035D88A8912F4906F31D0022325680969D4
:1042A0006F1A656905EB450595FBF3F508F1010308
:1042B0003B449D4238BF1D46530531D5294600F089
:1042C00047FB064650B90C23CAF80030A3894FF0CB
:1042D000FF3043F04003A381BDE8F0873A462169EF
:1042E00000F0C4FAA38923F4906343F08003A38110
:1042F00026613E44266046466561ED1BA560464545
:1043000028BF464649463246206800F0BAFAA368FC
:1043100000209B1BA36023681E442660BDE8F08735
:104320002A4600F073FB06460028E1D12169504679
:1043300000F0C2FAC7E700002DE9F04F9DB00393EB
:104340008B8980461C060D4616460FD50B696BB946
:10435000402100F0FDFA2860286128B90C23C8F834
:1043600000304FF0FF30C4E040236B61002309931D
:1043700020238DF8293030234FF0010B8DF82A309F
:1043800037463C4614F8013B002B3CD1B7EB060AFC
:104390000BD05346324629464046FFF771FF0130A5
:1043A00000F0A280099B534409933B78002B00F056
:1043B0009B8000234FF0FF320493079305920693EE
:1043C0008DF853301A9305222178504800F040FAB6
:1043D000671C049BD8B9D90644BF20228DF853200E
:1043E0001A0744BF2B228DF8532022782A2A16D090
:1043F00000210A20079A27463B780134303B092BDD
:1044000050D9C9B111E0252BC0D02746B9E73F4AA2
:104410003C46801A0BFA00F018430490D3E7039A45
:10442000111D12680391002A01DB079204E0524239
:1044300043F00203079204933B782E2B0DD17B7837
:10444000791C2A2B32D1039B02371A1D1B68039259
:10445000002BB8BF4FF0FF3305932D4C0322397862
:10446000204600F0F5F938B14023001B03FA00F0B4
:10447000049B0137034304933978062225487E1CA8
:104480008DF8281000F0E4F9002835D0224BFBB954
:10449000039B073323F0070308330393099B4B4423
:1044A00009936DE700FB02320121A4E700230A24EF
:1044B000184605930F463A780131303A092A03D954
:1044C000002BCAD00590C8E704FB00200123F1E7C8
:1044D00003AB00932A46114B04A94046AFF300807A
:1044E000B0F1FF3F8146D9D1AB895B063FF539AFCB
:1044F00009981DB0BDE8F08F03AB00932A46074B27
:1045000004A9404600F084F8EAE700BF88D9000813
:104510008ED9000892D900080000000081420008EE
:104520002DE9F04791461F468A680B69064693427B
:10453000B8BF1346C9F8003091F843200C46DDF8A7
:10454000208012B10133C9F800302368990642BFB8
:10455000D9F800300233C9F80030256815F0060597
:1045600007D104F1190AE368D9F800209B1A9D428B
:104570002ADB94F843302268003318BF01239206E7
:104580002FD404F1430239463046C047013022D0CF
:104590002368E56803F00603042B18BF0025D9F84B
:1045A00000204FF0000908BFAD1AA368226908BFB8
:1045B00025EAE5759342C4BF9B1AED181A344D45A0
:1045C0001BD10020BDE8F087012352463946304612
:1045D000C047013003D14FF0FF30BDE8F08701350F
:1045E000C1E73020E11881F843005A1C94F84510C7
:1045F0002244023382F84310C3E70123224639469E
:104600003046C0470130E6D009F10109D7E7000084
:104610002DE9F04317460A7E85B06E2A9846064675
:104620000C460C9B01F1430E00F0BC801AD8632AA3
:104630002ED00AD8002A00F0C880582A00F08A80BC
:1046400004F1420584F842202AE0642A01D0692A54
:10465000F6D121681A6811F0800F23D0111D19605E
:10466000136827E0732A00F0B48008D86F2A2AD094
:10467000702AE5D10A6842F020020A6003E0752A38
:1046800021D0782ADCD178226F4984F8452064E073
:104690001A6801F14205111D1960136884F842304F
:1046A0000123A3E011F0400F02F104011960D7D0FB
:1046B000B2F90030002B03DA2D225B4284F843204C
:1046C00062490A2217E02068196810F0800F03D0B1
:1046D000081D18600B6806E010F0400F01F104009F
:1046E0001860F7D00B886F2A14BF0A220822574996
:1046F000002084F843006568002DA560C0F29C800E
:10470000206820F004002060002B3FD1002D40F0F5
:1047100095807546082A0BD12368DA0708D52369E6
:1047200062689A42DEBF302305F8013C05F1FF358F
:10473000AEEB05032361CDF800803B4603AA21467A
:104740003046FFF7EDFE013055D14FF0FF3005B098
:10475000BDE8F08381F845203C492268186812F0D2
:10476000800F00F104051D6001D0036802E05506CA
:10477000FBD50388D00744BF42F0200222601BB95A
:10478000226822F0200222601022B1E77546B3FBB6
:10479000F2F002FB1033CB5C05F8013D0346002824
:1047A000F5D1B7E708681A6810F0800F496904D09E
:1047B000101D18601368196007E010F0400F02F137
:1047C000040018601368F6D0198000237546236131
:1047D000B1E71A68111D1960156800216268284642
:1047E00000F036F808B1401B606063682361002365
:1047F00084F843309FE723692A4639463046C0474C
:104800000130A2D023689B0707D5002504F11909C0
:10481000E368039A9B1A9D4205DBE068039B98427C
:10482000B8BF184693E701234A4639463046C04789
:1048300001308AD00135EBE7002BA7D10B7804F1CA
:10484000420584F8423065E7AAD9000899D90008E2
:1048500010B5C9B202449042034601D1002010BDF8
:104860001C7801308C42F6D1184610BD10B5431E9D
:104870000A44914200D110BD11F8014B03F8014FD9
:10488000F7E7884210B501EB020303D8421E9942B4
:104890000CD110BD9842F9D28118D21AD34200D15E
:1048A00010BD13F8014D01F8014DF7E711F8014B68
:1048B00002F8014FEBE7000038B50546002943D068
:1048C00051F8043C0C1F002BB8BFE41800F0D4F8DA
:1048D0001E4A1368104633B9636014602846BDE869
:1048E000384000F0CAB8A3420BD92168621893423D
:1048F00001BF1A685B685218226063600460EDE7CC
:1049000013465A680AB1A242FAD919685818A04247
:104910000BD120680144581882421960DED110681A
:104920005268014419605A60D8E702D90C232B6001
:10493000D4E7206821188A4201BF1168526809181B
:10494000216062605C60C9E738BD00BFB80000202C
:1049500070B5CD1C25F0030508350C2D38BF0C258E
:10496000002D064601DBA94203D90C233360002049
:1049700070BD00F081F8234A1468214691B9224C99
:1049800023681BB9304600F067F82060294630469E
:1049900000F062F8431C26D10C233046336000F04F
:1049A0006CF8E4E70B685B1B1AD40B2B0FD90B6078
:1049B000CC18CD50304600F060F804F10B00231DF8
:1049C00020F00700C31A1BD05A42E25070BD8C423F
:1049D0000BBF63684B681360636018BF0C46E9E760
:1049E0000C464968CAE7C41C24F00304A04205D061
:1049F000211A304600F030F80130CDD02560D9E7DB
:104A000070BD00BFB8000020BC000020F8B507460C
:104A100014460E4621B91146BDE8F840FFF798BF8D
:104A200022B9FFF749FF25462846F8BD00F026F8D1
:104A300084420FD921463846FFF78AFF05460028F1
:104A4000F2D031462246FFF711FF31463846FFF7D4
:104A500033FFE9E73546E7E738B50023054C05465F
:104A600008462360FDF776FA431C02D1236803B1A0
:104A70002B6038BD280100207047704751F8040CA6
:104A80000028A0F10400BCBF0B58C01870470000FC
:104A900030B5184A21F00043934287B004DC00226D
:104AA000002300F059FA06E0134A934205DD02465E
:104AB0000B46FBF751FB07B030BD02AA00F058F8D7
:104AC000DDE9042300F00304012CDDE9020108D034
:104AD000022C0CD0002CE4D00124009400F070FED5
:104AE000E9E7009400F06CFE01F10041E3E700F01B
:104AF00033FAF9E7FB21E93FFFFFEF7F30B51A4AB0
:104B000021F00043934287B006DC0023002200938B
:104B1000002300F055FE06E0144A934205DD0246EC
:104B20000B46FBF719FB07B030BD02AA00F020F8D6
:104B3000DDE9042300F00304012CDDE9020105D0C6
:104B4000022C06D064B901240094E2E700F004FAD4
:104B5000E9E70124009400F033FE01F10041E2E7AF
:104B600000F0FAF9F9E700BFFB21E93FFFFFEF7F13
:104B70002DE9F04F1446C44A21F0004A92458DB009
:104B80008B4607DC00220023C4E90001C4E90223AC
:104B9000002523E0BD4A924571DCADA3D3E9002393
:104BA0000029BB4D36DDFBF7D7FAAA4506460F466E
:104BB00018D0A9A3D3E90023FBF7CEFA02460B468F
:104BC0003046C4E900233946FBF7C6FAA2A3D3E96D
:104BD0000023FBF7C1FA0125C4E9020128460DB004
:104BE000BDE8F08F9EA3D3E90023FBF7B5FA9EA39F
:104BF000D3E9002306460F46FBF7AEFA02460B4602
:104C00003046C4E900233946FBF7A6FA96A3D3E958
:104C10000023DEE7FBF7A2FAAA4506460F4616D0A8
:104C20008DA3D3E90023FBF799FA02460B463046E1
:104C3000C4E900233946FBF78FFA87A3D3E90023A1
:104C4000FBF78CFA4FF0FF35C4E90201C6E784A3F5
:104C5000D3E90023FBF782FA83A3D3E900230646B6
:104C60000F46FBF77BFA02460B463046C4E90023A9
:104C70003946FBF771FA7CA3D3E90023E0E7854AC4
:104C8000924500F3D68000F051FE79A3D3E90023CA
:104C900006460F46FBF714FC00227F4BFBF75EFA3B
:104CA000FBF7A8FE0546FBF7A5FB69A3D3E90023A4
:104CB000CDE90201FBF704FC02460B4630463946BB
:104CC000FBF74AFA64A3D3E9002306460F46DDE961
:104CD0000201FBF7F5FB1F2D804689462EDC6F4B4A
:104CE0006A1E53F822309A4528D042464B46304639
:104CF0003946FBF731FAC4E900012368D4F804A06F
:104D00000293029A534630463946FBF725FA42464B
:104D10004B46FBF721FA02460B46BBF1000FC4E9F4
:104D20000223BFF65BAF029B01F1004123600AF151
:104D300000436360A060E1606D424FE742464B462E
:104D400030463946FBF708FA0B4602464FEA2A5A24
:104D5000C1F30A51AAEB01011029C4E90023CCDDFB
:104D60003FA3D3E90023DDE90201FBF7A9FB80465D
:104D7000894602460B4630463946FBF7EDF9CDE948
:104D8000040102460B4630463946FBF7E5F9424638
:104D90004B46FBF7E1F934A3D3E9002306460F465F
:104DA000DDE90201FBF78CFB32463B46FBF7D4F909
:104DB00002460B4680468946DDE90401FBF7CCF943
:104DC0000B460246C1F30A51AAEB010ABAF1310FB0
:104DD000C4E900232ADD28A3D3E90023DDE9020189
:104DE000FBF76EFB8046894602460B46DDE904016F
:104DF000FBF7B2F902460B4606460F46DDE9040111
:104E0000FBF7AAF942464B46FBF7A6F91CA3D3E9E8
:104E1000002380468946DDE90201FBF751FB42464B
:104E20004B46FBF799F9804689465EE7DDE9046762
:104E300063E71B4A924535DD02460B46FBF78CF9CA
:104E4000C4E90201C4E90001A2E600BFAFF300809B
:104E500000004054FB21F93F3163621A61B4D03D38
:104E60000000601A61B4D03D7370032E8A19A33B11
:104E700083C8C96D305FE43F0000002E8A19A33B50
:104E8000C14920259A837B39FB21E93F7BD9024028
:104E9000FB21F93FFB2139410000E03FBCD900086C
:104EA000FFFFEF7F4FEA2A55A5F21645AAEB055101
:104EB0000F460646FBF79EFDFBF79CFA02460B46A3
:104EC00030463946CDE90623FBF746F90022204B50
:104ED000FBF7F6FA0F460646FBF78CFDFBF78AFA5E
:104EE00002460B4630463946CDE90823FBF734F934
:104EF0000022174BFBF7E4FA4FF0030800260027C7
:104F0000CDE90A010DF13009324679E902013B464B
:104F100008F1FF3AFBF73CFDB8B90E4B2A46019366
:104F200002232146009306A8434600F0F3F8BBF1A4
:104F3000000F0546BFF652AE636803F1004363609D
:104F4000E36803F10043E360F6E6D046DCE700BF28
:104F5000000070413CDA00082DE9F04F21F00047D5
:104F6000B7F1795F85B005460C4692469B4604DA58
:104F7000FBF740FD002800F0A8802A46234628467B
:104F80002146FBF79DFA52A3D3E9002380468946C8
:104F9000FBF796FA50A3D3E90023FBF7DFF842466C
:104FA0004B46FBF78DFA4EA3D3E90023FBF7D4F869
:104FB00042464B46FBF784FA4BA3D3E90023FBF7A9
:104FC000CDF842464B46FBF77BFA49A3D3E90023D1
:104FD000FBF7C2F842464B46FBF772FA46A3D3E909
:104FE0000023FBF7BBF84B464246FBF769FA444BFC
:104FF000CDE900019F422ADC0022424B404649464F
:10500000FBF75EFADDE9002306460F4640464946B7
:10501000FBF756FA5246804689465B4628462146AB
:10502000FBF74EFA02460B4640464946FBF794F81A
:1050300002460B4630463946FBF78EF80246002002
:105040000B463149FBF788F805B0BDE8F08F2F4BD0
:1050500000209F42DFBF0022A7F5001316461F461F
:10506000C4BF00262A4F32463B462749FBF774F857
:105070000022CDE90201234B40464946FBF720FAC6
:1050800032463B46FBF768F8DDE9002306460F464B
:1050900040464946FBF714FA5246804689465B462D
:1050A00028462146FBF70CFA02460B464046494685
:1050B000FBF752F802460B4630463946FBF74CF8F0
:1050C00002460B46DDE90201BCE700200E49BBE7C2
:1050D000D43888BEE9FAA8BDC4B1B4BD9EEE213E65
:1050E000AD529C804F7E923E9015CB19A001FA3EA6
:1050F0007751C1166CC1563F4C5555555555A53F76
:105100003233D33F0000E03F0000F03F0000E93FB2
:105110000000D23F2DE9F04FADF51B7D06930191C4
:10512000C04BA499D41E53F8213000250293069B4E
:105130000A90013B0893182394FBF3F46FF01703D4
:1051400024EAE47404FB033303EB020A089A029B8B
:10515000A71A03EB0208A59B002203EB8709002393
:1051600020AE454514DD00260DF5E07B029B9E42F6
:1051700039DC0A9B4FF00008083B0493069B4FF074
:1051800000099D1922AB03EBC5030993002723E017
:10519000EF420BD459F82500CDE90423FBF72AF997
:1051A000DDE90423E6E902010135DAE71046194694
:1051B000F8E70999049D71E902230991F5E90201D3
:1051C0000495FBF77DF902460B4640464946FAF73F
:1051D000C5FF804689460137089B9F42E9DDEBE920
:1051E00002890136C2E7029B0EAA02EB83030D93EC
:1051F000A59B029F03EB84030C9300269AAB07F157
:10520000005B03EBC7030BF1FF3B53E928894FEA2F
:10521000CB030993099A9AAB1344A3F1980BBB1BD8
:10522000002B70DC52464046494600F009FC002243
:105230004FF07F5304460D46FBF742F900F07CFB2C
:105240000022794BFBF73CF902460B4620462946E3
:10525000FAF782FF0D460446FBF7CCFB0490FBF700
:10526000C9F802460B4620462946FAF775FFBAF1FF
:10527000000F804689466BDD7A1E0EAB53F8220084
:10528000CAF11801049C40FA01F31C448B40C01A77
:105290000EAB43F82200CAF11703049440FA03FB53
:1052A000BBF1000F62DD00226FF07F411446049BCA
:1052B00001330493974200F38880BAF1000F07DDB1
:1052C000BAF1010F00F09580BAF1020F00F09B8057
:1052D000BBF1020F4AD142464B4600205349FAF730
:1052E0003BFF80468946002C40D0524600204F4963
:1052F00000F0A6FB02460B4640464946FAF72CFF53
:105300008046894632E00022494B40464946FBF739
:10531000D7F8FBF76FFBFBF76DF80022454B04460F
:105320000D46FBF7CDF802460B4640464946FAF7D4
:1053300013FFFBF75FFB0EAB43F8260029467BE922
:1053400002232046FAF70AFF01368046894666E7BF
:1053500006D17B1E0EAA52F823004FEAE05B9FE7BE
:105360000022354BFBF732FB60BB83460022002353
:1053700040464946FBF70CFB002800F0C4807C1E29
:105380002346002202998B4244DA002A40F08880AA
:1053900001246FF0030202FB04F30D99CB58002B9C
:1053A0003ED0099B9AAA1344A3F1980B069B7E1C3E
:1053B000DD1902EBC505A5F5F4753C44A6423DDDBB
:1053C00027461AE74FF0020B6DE70EAB53F8223079
:1053D0004CB92BB1C3F180730EA840F822300123E1
:1053E00001321C4666E7CB1A0EA840F8223023464D
:1053F000F6E77A1E0EAB53F82230C3F316030EA95C
:1054000041F8223064E77A1E0EAB53F82230C3F322
:105410001503F4E70EA951F82310013B0A43B1E745
:105420000134B8E788DB0008000020400000F03FAE
:105430000000703E000070410000E03F05F10803ED
:105440000B930C9B002753F82600FAF7D3FF4FF07D
:1054500000084FF000090A9BC5E90201083B0493CC
:1054600005F110030993089B9F4204DDEBE90289D3
:1054700001360B9DA2E70999049D71E90223099168
:10548000F5E902010495FBF71BF802460B4640467E
:105490004946FAF763FE013780468946E3E7013C57
:1054A0000EAB53F82430AAF1180A002BF7D052465D
:1054B0000020B54900F0C4FA254606460F464FF0D5
:1054C0000009E3009AAA02EB0308DFF8C4A20893DC
:1054D000A8F19808002D4CDA002504F100580DF5CC
:1054E000907A08F1FF38631B002B71DB72ABA8EBDD
:1054F000050703EBC70700220023DFF89892CDE9E8
:105500000623002659E0CAF100024046494600F051
:1055100097FA00229D4B04460D46FBF757FAF8B167
:1055200000229B4B20462946FAF7CAFFFBF762FA96
:105530000646FAF75FFF0022944BFAF7C1FF0B46CD
:10554000024629462046FAF707FEFBF753FA7C1C71
:105550000EAB43F827000AF1180A43F82460A6E7C7
:1055600020462946FBF746FA0EAB43F827003C4697
:105570009DE70EAB53F82500FAF73CFF32463B4659
:10558000FAF79EFF4A4668E902015346304639461B
:10559000FAF796FF013D06460F469BE7F7E902231F
:1055A000F9E90201FAF78CFF02460B46DDE9060134
:1055B000FAF7D4FDCDE906010136029B9E4201DCDB
:1055C000AE42EBDDDDE906230135EAE902238AE795
:1055D000A49B032B6CD8DFE803F0582C2C02089A0C
:1055E0004AAB9D18AA462646002E00F38880A246A4
:1055F000BAF1010F00F3A18000273E46089D4AAB97
:1056000008351D44012C00F3B580BBF1000F40F0BC
:10561000C38001994AABD3E90023C1E900234CAB15
:10562000D3E90023C1E902233A463346C1E9042302
:105630003EE04FF0000E26467746089D4AAB0835FF
:105640001D44002E45DABBF1000F4CD007F100419C
:1056500072460B4601990126C1E900234AA9724608
:10566000D1E900013B46FAF777FD86460F464AAD81
:10567000B4423ADABBF1000F01D007F1004772469D
:105680003B460199C1E9022312E000273D46089BF1
:105690009AAA1344A3F59C76002C10DABBF1000FF4
:1056A00001D005F100453A462B460199C1E9002396
:1056B000049B03F007000DF51B7DBDE8F08F384615
:1056C00076E902232946FAF749FD013C07460D46D3
:1056D000E2E7704675E902233946FAF73FFD013EDD
:1056E00086460F46ADE73946B2E77046F5E9022334
:1056F0003946FAF733FD013686460F46B8E7DAE950
:1057000000235AE9028940464946CDE90223FAF7C7
:1057100025FDCDE9060102460B4640464946FAF70B
:105720001BFDDDE90223FAF719FDDDE90623CAE9CD
:105730000001013E6AE9022356E7D5E9002355E955
:10574000026730463946CDE90223FAF707FD0246E3
:105750000B468046894630463946FAF7FDFCDDE9BE
:105760000223FAF7FBFC0AF1FF3AC5E9000165E9FB
:1057700002893DE7384675E902233146FAF7EEFC27
:10578000013C07460E463DE70000F03F0000704137
:105790000000703E40DB0008019A4A9B06F100467B
:1057A00013604B9B176103F1004353604C9B5661A0
:1057B00093604D9B03F10043D36079E70000000044
:1057C0002DE9F04786B0CDE9002321F00043B3F185
:1057D000795F82460C460E9D03DAFBF70BF9002831
:1057E00050D05246234650462146FAF769FE0646F7
:1057F0000F4602460B4650462146FAF761FE3EA38D
:10580000D3E900238046894630463946FAF758FEE8
:105810003BA3D3E90023FAF79FFC32463B46FAF755
:105820004FFE39A3D3E90023FAF798FC32463B46F2
:10583000FAF746FE36A3D3E90023FAF78DFC324689
:105840003B46FAF73DFE34A3D3E90023FAF786FC82
:10585000CDE90201DDB902460B4630463946FAF77A
:105860002FFE2FA3D3E90023FAF776FC42464B46DE
:10587000FAF726FE02460B4650462146FAF76EFC22
:1058800082460C465046214606B0BDE8F08700220D
:10589000DDE90001244BFAF713FEDDE90223CDE92F
:1058A000040140464946FAF70BFE02460B46DDE985
:1058B0000401FAF751FC32463B46FAF701FEDDE9F6
:1058C0000023FAF749FC16A3D3E9002306460F4646
:1058D00040464946FAF7F4FD02460B463046394643
:1058E000FAF73CFC02460B4650462146FAF734FCD8
:1058F000C6E700BFAFF300807CD5CF5A3AD9E53D6B
:10590000EB9C2B8AE6E55A3E7DFEB157E31DC73E70
:10591000D561C119A0012A3FA6F810111111813FCC
:10592000495555555555C53F0000E03F21F0004110
:1059300070470000000000002DE9F843C1F30A5849
:10594000A8F2FF36132E07460B460C46054635DCFB
:10595000002E16DA36A3D3E90023FAF7FFFB002264
:105960000023FBF73DF848B1002C5CDA24F000433B
:105970003B43314B4FF0000518BF1C4623462F46D2
:1059800027E02E4A42FA06F801EA0802024320D034
:1059900027A3D3E90023FAF7E1FB00220023FBF75A
:1059A0001FF80028EAD0002CBEBF4FF4801343FA42
:1059B00006F6A41924EA08040025DFE7332E0CDDDF
:1059C000B6F5806F05D10B460246FAF7C7FB0746CE
:1059D0000B4638461946BDE8F8834FF0FF32A8F26F
:1059E000134822FA08F810EA080FF2D010A3D3E9FE
:1059F0000023FAF7B3FB00220023FAF7F1FF002897
:105A0000BCD0002C02DA142E03D1013425EA08059B
:105A1000B4E70123C6F1340603FA06F63544AF4273
:105A200088BFE418F2E700252C46A7E7AFF3008013
:105A30009C7500883CE4377E0000F0BFFFFF0F003C
:105A4000F8B51646C1F30A5204460D460B468AB90C
:105A500021F00043034335D000222D4BFAF730FDEF
:105A60002C4A044696420D460B460EDA24A3D3E98F
:105A700000231CE040F2FF77BA4209D102460B46F0
:105A8000FAF76CFB04460D461CE0C1F30A52363AA5
:105A900040F2FE7132448A420CDD22462B461AA1A6
:105AA000D1E9000100F03AF817A3D3E90023FAF78F
:105AB00007FDE7E7002A08DD23F0FF4323F4E003B6
:105AC00043EA025520462946F8BD12F1350F0BDA9C
:105AD0004CF250339E4222462B46E0DC08A1D1E92D
